:03000000020026D5
:0C002600787FE4F6D8FD75811302006DB0
:0D00160077656C636F6D616263732100009C
:0A0111000808616263646566670018
:0E0103001200037BFF7A0079161200DF80FEE7
:0A011C008F99209904C29980F922FE
:0600DF008B118A12891347
:1000E500E4FEAB11AA12A913EEFD3395E08D82F55E
:0D00F500831200B2FF600612011C0E80E5B0
:0101020022DA
:10000300758920758DFD758BFDD28E439850D2AFC7
:03001300D2AC224A
:03002300020126B1
:06012600309802C298327D
:10003200020103E493A3F8E493A34003F68001F2E0
:1000420008DFF48029E493A3F85407240CC8C333CF
:10005200C4540F4420C8834004F456800146F6DF9E
:10006200E4800B0102040810204080900111E47E1C
:10007200019360BCA3FF543F30E509541FFEE49393
:10008200A360010ECF54C025E060A840B8E493A35A
:10009200FAE493A3F8E493A3C8C582C8CAC583CA85
:1000A200F0A3C8C582C8CAC583CADFE9DEE780BE3D
:01011B0000E3
:1000B200BB010CE58229F582E5833AF583E0225003
:1000C20006E92582F8E622BBFE06E92582F8E2224D
:0D00D200E58229F582E5833AF583E4932267
:00000001FF
